{
    "contractName": "LockedWalletFactory",
    "abi": [
        {
            "anonymous": false,
            "inputs": [
                {
                    "indexed": false,
                    "internalType": "address",
                    "name": "wallet",
                    "type": "address"
                },
                {
                    "indexed": false,
                    "internalType": "address",
                    "name": "from",
                    "type": "address"
                },
                {
                    "indexed": false,
                    "internalType": "address",
                    "name": "to",
                    "type": "address"
                },
                {
                    "indexed": false,
                    "internalType": "uint256",
                    "name": "createdAt",
                    "type": "uint256"
                },
                {
                    "indexed": false,
                    "internalType": "uint256",
                    "name": "unlockDate",
                    "type": "uint256"
                },
                {
                    "indexed": false,
                    "internalType": "uint256",
                    "name": "amount",
                    "type": "uint256"
                }
            ],
            "name": "Created",
            "type": "event"
        },
        {
            "stateMutability": "nonpayable",
            "type": "fallback"
        },
        {
            "inputs": [
                {
                    "internalType": "address",
                    "name": "_user",
                    "type": "address"
                }
            ],
            "name": "getWallets",
            "outputs": [
                {
                    "internalType": "address[]",
                    "name": "",
                    "type": "address[]"
                }
            ],
            "stateMutability": "view",
            "type": "function"
        },
        {
            "inputs": [
                {
                    "internalType": "address",
                    "name": "_owner",
                    "type": "address"
                },
                {
                    "internalType": "uint256",
                    "name": "_unlockDate",
                    "type": "uint256"
                }
            ],
            "name": "newLockedWallet",
            "outputs": [
                {
                    "internalType": "address payable",
                    "name": "wallet",
                    "type": "address"
                }
            ],
            "stateMutability": "payable",
            "type": "function"
        }
    ],
    "bytecode": "608060405234801561001057600080fd5b506108ef806100206000396000f3fe6080604052600436106100295760003560e01c8063422c29a414610079578063ab5cdfb6146100af575b34801561003557600080fd5b5060405162461bcd60e51b815260206004820152601460248201527374686520636865636b206973206661696c696e6760601b604482015260640160405180910390fd5b34801561008557600080fd5b506100996100943660046102df565b6100da565b6040516100a69190610329565b60405180910390f35b6100c26100bd366004610300565b61014f565b6040516001600160a01b0390911681526020016100a6565b6001600160a01b0381166000908152602081815260409182902080548351818402810184019094528084526060939283018282801561014257602002820191906000526020600020905b81546001600160a01b03168152600190910190602001808311610124575b505050505090505b919050565b600080338484604051610161906102bb565b6001600160a01b0393841681529290911660208301526040820152606001604051809103906000f08015801561019b573d6000803e3d6000fd5b50336000818152602081815260408220805460018101825590835291200180546001600160a01b0319166001600160a01b038481169190911790915591935083925090851614610222576001600160a01b038481166000908152602081815260408220805460018101825590835291200180546001600160a01b0319169184169190911790555b6040516001600160a01b038316903480156108fc02916000818181858888f19350505050158015610257573d6000803e3d6000fd5b50604080516001600160a01b038481168252336020830152861681830152426060820152608081018590523460a082015290517f14d5db8c1f746c7adcbcd13cf8945dd2ac6ad58be52380b8c4933c876f76e1bf9181900360c00190a15092915050565b6105438061037783390190565b80356001600160a01b038116811461014a57600080fd5b6000602082840312156102f0578081fd5b6102f9826102c8565b9392505050565b60008060408385031215610312578081fd5b61031b836102c8565b946020939093013593505050565b6020808252825182820181905260009190848201906040850190845b8181101561036a5783516001600160a01b031683529284019291840191600101610345565b5090969550505050505056fe608060405234801561001057600080fd5b5060405161054338038061054383398101604081905261002f91610087565b600080546001600160a01b039485166001600160a01b0319918216179091556001805493909416921691909117909155600255426003556100c2565b80516001600160a01b038116811461008257600080fd5b919050565b60008060006060848603121561009b578283fd5b6100a48461006b565b92506100b26020850161006b565b9150604084015190509250925092565b610472806100d16000396000f3fe6080604052600436106100745760003560e01c806349df728c1161004e57806349df728c1461015657806369ac5721146101765780638da5cb5b1461019a578063cf09e0d0146101ba576100b3565b806302d05d3f146100b8578063370158ea146100f55780633ccfd60b1461013f576100b3565b366100b357604080513381523460208201527f88a5966d370b9919b20f3e2c13ff65706f196a4e32cc2c12bf57088f88525874910160405180910390a1005b600080fd5b3480156100c457600080fd5b506000546100d8906001600160a01b031681565b6040516001600160a01b0390911681526020015b60405180910390f35b34801561010157600080fd5b50600054600154600254600354604080516001600160a01b03958616815294909316602085015291830152606082015247608082015260a0016100ec565b34801561014b57600080fd5b506101546101d0565b005b34801561016257600080fd5b506101546101713660046103d6565b61025d565b34801561018257600080fd5b5061018c60025481565b6040519081526020016100ec565b3480156101a657600080fd5b506001546100d8906001600160a01b031681565b3480156101c657600080fd5b5061018c60035481565b6001546001600160a01b031633146101e757600080fd5b6002544210156101f657600080fd5b60405133904780156108fc02916000818181858888f19350505050158015610222573d6000803e3d6000fd5b50604080513381524760208201527fb244b9a17ad633c6e83b7983ee04320484956a68ddbe96a0b70dfca1cf19d723910160405180910390a1565b6001546001600160a01b0316331461027457600080fd5b60025442101561028357600080fd5b6040516370a0823160e01b815230600482015281906000906001600160a01b038316906370a082319060240160206040518083038186803b1580156102c757600080fd5b505afa1580156102db573d6000803e3d6000fd5b505050506040513d601f19601f820116820180604052508101906102ff9190610424565b60015460405163a9059cbb60e01b81526001600160a01b0391821660048201526024810183905291925083169063a9059cbb90604401602060405180830381600087803b15801561034f57600080fd5b505af1158015610363573d6000803e3d6000fd5b505050506040513d601f19601f820116820180604052508101906103879190610404565b50604080516001600160a01b03851681523360208201529081018290527fa04c965e7d289704527a948915777d68bb4530fb4b08aa935fb958c0b7901ab99060600160405180910390a1505050565b6000602082840312156103e7578081fd5b81356001600160a01b03811681146103fd578182fd5b9392505050565b600060208284031215610415578081fd5b815180151581146103fd578182fd5b600060208284031215610435578081fd5b505191905056fea26469706673582212200950ac7bc29dc85b8b4af50222015ad038cc2d3eb2e02509c7bc8b67873f1a0064736f6c63430008030033a264697066735822122080a68d1c207c19f97b7b5b6d6f746c383b09ca0bd445b011191d00bf7048f3f064736f6c63430008030033",
    "sourcePath": "c:/Users/gabrycina/Documents/VestingContract/contracts/LockedWalletFactory.sol",
    "compiler": {
        "name": "solc",
        "version": "0.8.3+commit.8d00100c"
    },
    "functionHashes": {
        "getWallets(address)": "422c29a4",
        "newLockedWallet(address,uint256)": "ab5cdfb6"
    },
    "gasEstimates": {
        "creation": {
            "codeDepositCost": "457400",
            "executionCost": "493",
            "totalCost": "457893"
        },
        "external": {
            "": "231",
            "getWallets(address)": "infinite",
            "newLockedWallet(address,uint256)": "infinite"
        }
    }
}