{
  "contractName": "EISS",
  "abi": [
    {
      "inputs": [
        {
          "internalType": "address",
          "name": "_creator",
          "type": "address"
        },
        {
          "internalType": "address",
          "name": "_owner",
          "type": "address"
        },
        {
          "internalType": "address",
          "name": "_unipegContract",
          "type": "address"
        }
      ],
      "stateMutability": "nonpayable",
      "type": "constructor"
    },
    {
      "inputs": [],
      "name": "createdAt",
      "outputs": [
        {
          "internalType": "uint256",
          "name": "",
          "type": "uint256"
        }
      ],
      "stateMutability": "view",
      "type": "function"
    },
    {
      "inputs": [],
      "name": "creationBlock",
      "outputs": [
        {
          "internalType": "uint256",
          "name": "",
          "type": "uint256"
        }
      ],
      "stateMutability": "view",
      "type": "function"
    },
    {
      "inputs": [],
      "name": "creator",
      "outputs": [
        {
          "internalType": "address",
          "name": "",
          "type": "address"
        }
      ],
      "stateMutability": "view",
      "type": "function"
    },
    {
      "inputs": [],
      "name": "interest",
      "outputs": [
        {
          "internalType": "uint256",
          "name": "",
          "type": "uint256"
        }
      ],
      "stateMutability": "view",
      "type": "function"
    },
    {
      "inputs": [],
      "name": "owner",
      "outputs": [
        {
          "internalType": "address",
          "name": "",
          "type": "address"
        }
      ],
      "stateMutability": "view",
      "type": "function"
    },
    {
      "inputs": [],
      "name": "unlockDate",
      "outputs": [
        {
          "internalType": "uint256",
          "name": "",
          "type": "uint256"
        }
      ],
      "stateMutability": "view",
      "type": "function"
    },
    {
      "inputs": [],
      "name": "yearOfBlocks",
      "outputs": [
        {
          "internalType": "uint256",
          "name": "",
          "type": "uint256"
        }
      ],
      "stateMutability": "view",
      "type": "function"
    },
    {
      "inputs": [
        {
          "internalType": "address",
          "name": "_tokenContract",
          "type": "address"
        }
      ],
      "name": "burnInterest",
      "outputs": [],
      "stateMutability": "nonpayable",
      "type": "function"
    }
  ],
  "bytecode": "0x6080604052622014806005556103e860065534801561001d57600080fd5b50604051610826380380610826833981810160405281019061003f9190610125565b826000806101000a81548173ffffffffffffffffffffffffffffffffffffffff021916908373ffffffffffffffffffffffffffffffffffffffff16021790555081600160006101000a81548173ffffffffffffffffffffffffffffffffffffffff021916908373ffffffffffffffffffffffffffffffffffffffff1602179055504360048190555080600760006101000a81548173ffffffffffffffffffffffffffffffffffffffff021916908373ffffffffffffffffffffffffffffffffffffffff1602179055505050506101bd565b60008151905061011f816101a6565b92915050565b60008060006060848603121561013a57600080fd5b600061014886828701610110565b935050602061015986828701610110565b925050604061016a86828701610110565b9150509250925092565b600061017f82610186565b9050919050565b600073ffffffffffffffffffffffffffffffffffffffff82169050919050565b6101af81610174565b81146101ba57600080fd5b50565b61065a806101cc6000396000f3fe608060405234801561001057600080fd5b50600436106100885760003560e01c80638da5cb5b1161005b5780638da5cb5b14610105578063c392f76614610123578063cf09e0d014610141578063fd5104a71461015f57610088565b806302d05d3f1461008d57806317634514146100ab57806369ac5721146100c95780637b7ea15f146100e7575b600080fd5b61009561017b565b6040516100a29190610467565b60405180910390f35b6100b361019f565b6040516100c09190610482565b60405180910390f35b6100d16101a5565b6040516100de9190610482565b60405180910390f35b6100ef6101ab565b6040516100fc9190610482565b60405180910390f35b61010d6101b1565b60405161011a9190610467565b60405180910390f35b61012b6101d7565b6040516101389190610482565b60405180910390f35b6101496101dd565b6040516101569190610482565b60405180910390f35b610179600480360381019061017491906103f7565b6101e3565b005b60008054906101000a900473ffffffffffffffffffffffffffffffffffffffff1681565b60045481565b60025481565b60055481565b600160009054906101000a900473ffffffffffffffffffffffffffffffffffffffff1681565b60065481565b60035481565b600160009054906101000a900473ffffffffffffffffffffffffffffffffffffffff1673ffffffffffffffffffffffffffffffffffffffff163373ffffffffffffffffffffffffffffffffffffffff161461023d57600080fd5b6000600760009054906101000a900473ffffffffffffffffffffffffffffffffffffffff1673ffffffffffffffffffffffffffffffffffffffff166370a08231836040518263ffffffff1660e01b815260040161029a9190610467565b60206040518083038186803b1580156102b257600080fd5b505afa1580156102c6573d6000803e3d6000fd5b505050506040513d601f19601f820116820180604052508101906102ea9190610420565b90506000600454436102fc9190610528565b905062080520811115610310576208052090505b600081600554600654610323919061049d565b61032d91906104ce565b9050600760009054906101000a900473ffffffffffffffffffffffffffffffffffffffff1673ffffffffffffffffffffffffffffffffffffffff166342966c68848361037991906104ce565b6040518263ffffffff1660e01b81526004016103959190610482565b600060405180830381600087803b1580156103af57600080fd5b505af11580156103c3573d6000803e3d6000fd5b5050505050505050565b6000813590506103dc816105f6565b92915050565b6000815190506103f18161060d565b92915050565b60006020828403121561040957600080fd5b6000610417848285016103cd565b91505092915050565b60006020828403121561043257600080fd5b6000610440848285016103e2565b91505092915050565b6104528161055c565b82525050565b6104618161058e565b82525050565b600060208201905061047c6000830184610449565b92915050565b60006020820190506104976000830184610458565b92915050565b60006104a88261058e565b91506104b38361058e565b9250826104c3576104c26105c7565b5b828204905092915050565b60006104d98261058e565b91506104e48361058e565b9250817fffffffffffffffffffffffffffffffffffffffffffffffffffffffffffffffff048311821515161561051d5761051c610598565b5b828202905092915050565b60006105338261058e565b915061053e8361058e565b92508282101561055157610550610598565b5b828203905092915050565b60006105678261056e565b9050919050565b600073ffffffffffffffffffffffffffffffffffffffff82169050919050565b6000819050919050565b7f4e487b7100000000000000000000000000000000000000000000000000000000600052601160045260246000fd5b7f4e487b7100000000000000000000000000000000000000000000000000000000600052601260045260246000fd5b6105ff8161055c565b811461060a57600080fd5b50565b6106168161058e565b811461062157600080fd5b5056fea26469706673582212200cc959b998e98835056ee9581c2f4d94a849a625e0f7571e22baf3b637ace60264736f6c63430008030033",
  "immutableReferences": {},
  "source": "// SPDX-License-Identifier: MIT\r\npragma solidity >=0.4.22 <0.9.0;\r\n\r\nimport \"./UniPeg.sol\";\r\n\r\ncontract EISS {\r\n    address public creator;\r\n    address public owner;\r\n    uint public unlockDate;\r\n    uint public createdAt;\r\n    uint public creationBlock;\r\n    uint public yearOfBlocks = 2102400;\r\n    uint public interest = 1000;\r\n    UniPeg unipeg;\r\n\r\n    constructor(address _creator, address _owner, address _unipegContract) {\r\n        creator = _creator;\r\n        owner = _owner;\r\n        creationBlock = block.number;\r\n        unipeg = UniPeg(_unipegContract);\r\n    }\r\n\r\n    modifier onlyOwner {\r\n        require(msg.sender == owner);\r\n        _;\r\n    }\r\n\r\n    function burnInterest(address _tokenContract) onlyOwner public {\r\n        //Take unipegs vested amount to calculate token burn amount\r\n        uint vestedUnipeg = unipeg.balanceOf(_tokenContract);\r\n\r\n        //Calculate blocks passed since vesting\r\n        uint blocksPassed = block.number - creationBlock;\r\n\r\n        //Reset to 3 Months if greater\r\n        if(blocksPassed > 525600)\r\n            blocksPassed = 525600;\r\n\r\n        //Constant calc\r\n        uint k = (interest/yearOfBlocks) * blocksPassed;\r\n        \r\n        unipeg.burn(k*vestedUnipeg);\r\n    }\r\n}",
  "sourcePath": "C:/Users/gabrycina/Documents/VestingContract/contracts/EISS.sol",
  "compiler": {
    "name": "solc",
    "version": "0.8.3+commit.8d00100c.Emscripten.clang"
  },
  "schemaVersion": "3.3.4",
  "updatedAt": "2021-05-05T20:08:11.109Z",
  "devdoc": {
    "kind": "dev",
    "methods": {},
    "version": 1
  },
  "userdoc": {
    "kind": "user",
    "methods": {},
    "version": 1
  }
}