{
  "contractName": "LockedWallet",
  "abi": [
    {
      "inputs": [
        {
          "internalType": "address",
          "name": "_creator",
          "type": "address"
        },
        {
          "internalType": "address",
          "name": "_owner",
          "type": "address"
        },
        {
          "internalType": "uint256",
          "name": "_unlockDate",
          "type": "uint256"
        }
      ],
      "stateMutability": "nonpayable",
      "type": "constructor"
    },
    {
      "anonymous": false,
      "inputs": [
        {
          "indexed": false,
          "internalType": "address",
          "name": "from",
          "type": "address"
        },
        {
          "indexed": false,
          "internalType": "uint256",
          "name": "amount",
          "type": "uint256"
        }
      ],
      "name": "Received",
      "type": "event"
    },
    {
      "anonymous": false,
      "inputs": [
        {
          "indexed": false,
          "internalType": "address",
          "name": "to",
          "type": "address"
        },
        {
          "indexed": false,
          "internalType": "uint256",
          "name": "amount",
          "type": "uint256"
        }
      ],
      "name": "Withdrew",
      "type": "event"
    },
    {
      "anonymous": false,
      "inputs": [
        {
          "indexed": false,
          "internalType": "address",
          "name": "tokenContract",
          "type": "address"
        },
        {
          "indexed": false,
          "internalType": "address",
          "name": "to",
          "type": "address"
        },
        {
          "indexed": false,
          "internalType": "uint256",
          "name": "amount",
          "type": "uint256"
        }
      ],
      "name": "WithdrewTokens",
      "type": "event"
    },
    {
      "inputs": [],
      "name": "createdAt",
      "outputs": [
        {
          "internalType": "uint256",
          "name": "",
          "type": "uint256"
        }
      ],
      "stateMutability": "view",
      "type": "function"
    },
    {
      "inputs": [],
      "name": "creator",
      "outputs": [
        {
          "internalType": "address",
          "name": "",
          "type": "address"
        }
      ],
      "stateMutability": "view",
      "type": "function"
    },
    {
      "inputs": [],
      "name": "owner",
      "outputs": [
        {
          "internalType": "address",
          "name": "",
          "type": "address"
        }
      ],
      "stateMutability": "view",
      "type": "function"
    },
    {
      "inputs": [],
      "name": "unlockDate",
      "outputs": [
        {
          "internalType": "uint256",
          "name": "",
          "type": "uint256"
        }
      ],
      "stateMutability": "view",
      "type": "function"
    },
    {
      "stateMutability": "payable",
      "type": "receive"
    },
    {
      "inputs": [],
      "name": "withdraw",
      "outputs": [],
      "stateMutability": "nonpayable",
      "type": "function"
    },
    {
      "inputs": [
        {
          "internalType": "address",
          "name": "_tokenContract",
          "type": "address"
        }
      ],
      "name": "withdrawTokens",
      "outputs": [],
      "stateMutability": "nonpayable",
      "type": "function"
    },
    {
      "inputs": [],
      "name": "info",
      "outputs": [
        {
          "internalType": "address",
          "name": "",
          "type": "address"
        },
        {
          "internalType": "address",
          "name": "",
          "type": "address"
        },
        {
          "internalType": "uint256",
          "name": "",
          "type": "uint256"
        },
        {
          "internalType": "uint256",
          "name": "",
          "type": "uint256"
        },
        {
          "internalType": "uint256",
          "name": "",
          "type": "uint256"
        }
      ],
      "stateMutability": "view",
      "type": "function"
    }
  ],
  "bytecode": "0x608060405234801561001057600080fd5b506040516109a43803806109a4833981810160405281019061003291906100f3565b826000806101000a81548173ffffffffffffffffffffffffffffffffffffffff021916908373ffffffffffffffffffffffffffffffffffffffff16021790555081600160006101000a81548173ffffffffffffffffffffffffffffffffffffffff021916908373ffffffffffffffffffffffffffffffffffffffff16021790555080600281905550426003819055505050506101ac565b6000815190506100d88161017e565b92915050565b6000815190506100ed81610195565b92915050565b60008060006060848603121561010857600080fd5b6000610116868287016100c9565b9350506020610127868287016100c9565b9250506040610138868287016100de565b9150509250925092565b600061014d82610154565b9050919050565b600073ffffffffffffffffffffffffffffffffffffffff82169050919050565b6000819050919050565b61018781610142565b811461019257600080fd5b50565b61019e81610174565b81146101a957600080fd5b50565b6107e9806101bb6000396000f3fe6080604052600436106100745760003560e01c806349df728c1161004e57806349df728c1461012a57806369ac5721146101535780638da5cb5b1461017e578063cf09e0d0146101a9576100b4565b806302d05d3f146100b9578063370158ea146100e45780633ccfd60b14610113576100b4565b366100b4577f88a5966d370b9919b20f3e2c13ff65706f196a4e32cc2c12bf57088f8852587433346040516100aa9291906106e2565b60405180910390a1005b600080fd5b3480156100c557600080fd5b506100ce6101d4565b6040516100db919061063d565b60405180910390f35b3480156100f057600080fd5b506100f96101f8565b60405161010a95949392919061068f565b60405180910390f35b34801561011f57600080fd5b5061012861025d565b005b34801561013657600080fd5b50610151600480360381019061014c91906105a4565b610348565b005b34801561015f57600080fd5b50610168610533565b604051610175919061070b565b60405180910390f35b34801561018a57600080fd5b50610193610539565b6040516101a0919061063d565b60405180910390f35b3480156101b557600080fd5b506101be61055f565b6040516101cb919061070b565b60405180910390f35b60008054906101000a900473ffffffffffffffffffffffffffffffffffffffff1681565b60008060008060008060009054906101000a900473ffffffffffffffffffffffffffffffffffffffff16600160009054906101000a900473ffffffffffffffffffffffffffffffffffffffff1660025460035447945094509450945094509091929394565b600160009054906101000a900473ffffffffffffffffffffffffffffffffffffffff1673ffffffffffffffffffffffffffffffffffffffff163373ffffffffffffffffffffffffffffffffffffffff16146102b757600080fd5b6002544210156102c657600080fd5b3373ffffffffffffffffffffffffffffffffffffffff166108fc479081150290604051600060405180830381858888f1935050505015801561030c573d6000803e3d6000fd5b507fb244b9a17ad633c6e83b7983ee04320484956a68ddbe96a0b70dfca1cf19d723334760405161033e9291906106e2565b60405180910390a1565b600160009054906101000a900473ffffffffffffffffffffffffffffffffffffffff1673ffffffffffffffffffffffffffffffffffffffff163373ffffffffffffffffffffffffffffffffffffffff16146103a257600080fd5b6002544210156103b157600080fd5b600081905060008173ffffffffffffffffffffffffffffffffffffffff166370a08231306040518263ffffffff1660e01b81526004016103f1919061063d565b60206040518083038186803b15801561040957600080fd5b505afa15801561041d573d6000803e3d6000fd5b505050506040513d601f19601f8201168201806040525081019061044191906105f6565b90508173ffffffffffffffffffffffffffffffffffffffff1663a9059cbb600160009054906101000a900473ffffffffffffffffffffffffffffffffffffffff16836040518363ffffffff1660e01b81526004016104a09291906106e2565b602060405180830381600087803b1580156104ba57600080fd5b505af11580156104ce573d6000803e3d6000fd5b505050506040513d601f19601f820116820180604052508101906104f291906105cd565b507fa04c965e7d289704527a948915777d68bb4530fb4b08aa935fb958c0b7901ab983338360405161052693929190610658565b60405180910390a1505050565b60025481565b600160009054906101000a900473ffffffffffffffffffffffffffffffffffffffff1681565b60035481565b6000813590506105748161076e565b92915050565b60008151905061058981610785565b92915050565b60008151905061059e8161079c565b92915050565b6000602082840312156105b657600080fd5b60006105c484828501610565565b91505092915050565b6000602082840312156105df57600080fd5b60006105ed8482850161057a565b91505092915050565b60006020828403121561060857600080fd5b60006106168482850161058f565b91505092915050565b61062881610726565b82525050565b61063781610764565b82525050565b6000602082019050610652600083018461061f565b92915050565b600060608201905061066d600083018661061f565b61067a602083018561061f565b610687604083018461062e565b949350505050565b600060a0820190506106a4600083018861061f565b6106b1602083018761061f565b6106be604083018661062e565b6106cb606083018561062e565b6106d8608083018461062e565b9695505050505050565b60006040820190506106f7600083018561061f565b610704602083018461062e565b9392505050565b6000602082019050610720600083018461062e565b92915050565b600061073182610744565b9050919050565b60008115159050919050565b600073ffffffffffffffffffffffffffffffffffffffff82169050919050565b6000819050919050565b61077781610726565b811461078257600080fd5b50565b61078e81610738565b811461079957600080fd5b50565b6107a581610764565b81146107b057600080fd5b5056fea2646970667358221220695f65f08c0d79fcf19313d16c439bb9534668ab91cfbb4594af10400af6417b64736f6c63430008030033",
  "immutableReferences": {},
  "source": "// SPDX-License-Identifier: MIT\r\npragma solidity >=0.4.22 <0.9.0;\r\n\r\nimport \"openzeppelin-solidity/contracts/token/ERC20/ERC20.sol\";\r\n\r\ncontract LockedWallet { \r\n    address public creator;\r\n    address public owner;\r\n    uint public unlockDate;\r\n    uint public createdAt;\r\n\r\n    event Received(address from, uint amount);\r\n    event Withdrew(address to, uint amount);\r\n    event WithdrewTokens(address tokenContract, address to, uint amount);\r\n    \r\n    modifier onlyOwner {\r\n        require(msg.sender == owner);\r\n        _;\r\n    }\r\n\r\n    constructor (address _creator, address _owner, uint _unlockDate) {\r\n        creator = _creator;\r\n        owner = _owner;\r\n        unlockDate = _unlockDate;\r\n        createdAt = block.timestamp;\r\n    }\r\n\r\n    // keep all the ether sent to this address\r\n    receive() external payable { \r\n        emit Received(msg.sender, msg.value);\r\n    }\r\n\r\n    // callable by owner only, after specified time\r\n    function withdraw() onlyOwner public {\r\n       \r\n       require(block.timestamp >= unlockDate);\r\n\r\n       //now send all the balance\r\n       payable(msg.sender).transfer(address(this).balance);\r\n       Withdrew(msg.sender, address(this).balance);\r\n    }\r\n\r\n    // callable by owner only, after specified time, only for Tokens implementing ERC20\r\n    function withdrawTokens(address _tokenContract) onlyOwner public {\r\n       require(block.timestamp >= unlockDate);\r\n       ERC20 token = ERC20(_tokenContract);\r\n       //now send all the token balance\r\n       uint tokenBalance = token.balanceOf(address(this));\r\n       token.transfer(owner, tokenBalance);\r\n       WithdrewTokens(_tokenContract, msg.sender, tokenBalance);\r\n    }\r\n\r\n    function info() public view returns(address, address, uint, uint, uint) {\r\n        return (creator, owner, unlockDate, createdAt, address(this).balance);\r\n    }\r\n}",
  "sourcePath": "C:/Users/gabrycina/Documents/VestingContract/contracts/LockedWallet.sol",
  "compiler": {
    "name": "solc",
    "version": "0.8.3+commit.8d00100c.Emscripten.clang"
  },
  "schemaVersion": "3.3.4",
  "updatedAt": "2021-05-05T19:28:01.534Z",
  "devdoc": {
    "kind": "dev",
    "methods": {},
    "version": 1
  },
  "userdoc": {
    "kind": "user",
    "methods": {},
    "version": 1
  }
}