{
  "contractName": "LockedWalletFactory",
  "abi": [
    {
      "anonymous": false,
      "inputs": [
        {
          "indexed": false,
          "internalType": "address",
          "name": "wallet",
          "type": "address"
        },
        {
          "indexed": false,
          "internalType": "address",
          "name": "from",
          "type": "address"
        },
        {
          "indexed": false,
          "internalType": "address",
          "name": "to",
          "type": "address"
        },
        {
          "indexed": false,
          "internalType": "uint256",
          "name": "createdAt",
          "type": "uint256"
        },
        {
          "indexed": false,
          "internalType": "uint256",
          "name": "unlockDate",
          "type": "uint256"
        },
        {
          "indexed": false,
          "internalType": "uint256",
          "name": "amount",
          "type": "uint256"
        }
      ],
      "name": "Created",
      "type": "event"
    },
    {
      "stateMutability": "nonpayable",
      "type": "fallback"
    },
    {
      "inputs": [
        {
          "internalType": "address",
          "name": "_user",
          "type": "address"
        }
      ],
      "name": "getWallets",
      "outputs": [
        {
          "internalType": "address[]",
          "name": "",
          "type": "address[]"
        }
      ],
      "stateMutability": "view",
      "type": "function",
      "constant": true
    },
    {
      "inputs": [
        {
          "internalType": "address",
          "name": "_owner",
          "type": "address"
        },
        {
          "internalType": "uint256",
          "name": "_unlockDate",
          "type": "uint256"
        }
      ],
      "name": "newLockedWallet",
      "outputs": [
        {
          "internalType": "address payable",
          "name": "wallet",
          "type": "address"
        }
      ],
      "stateMutability": "payable",
      "type": "function",
      "payable": true
    }
  ],
  "bytecode": "0x608060405234801561001057600080fd5b50611164806100206000396000f3fe60806040526004361061002d5760003560e01c8063422c29a414610076578063ab5cdfb6146100b35761002e565b5b34801561003a57600080fd5b506040517f08c379a000000000000000000000000000000000000000000000000000000000815260040161006d90610645565b60405180910390fd5b34801561008257600080fd5b5061009d60048036038101906100989190610427565b6100e3565b6040516100aa9190610623565b60405180910390f35b6100cd60048036038101906100c89190610450565b6101af565b6040516100da9190610570565b60405180910390f35b60606000808373ffffffffffffffffffffffffffffffffffffffff1673ffffffffffffffffffffffffffffffffffffffff1681526020019081526020016000208054806020026020016040519081016040528092919081815260200182805480156101a357602002820191906000526020600020905b8160009054906101000a900473ffffffffffffffffffffffffffffffffffffffff1673ffffffffffffffffffffffffffffffffffffffff1681526020019060010190808311610159575b50505050509050919050565b6000803384846040516101c1906103f0565b6101cd939291906105ec565b604051809103906000f0801580156101e9573d6000803e3d6000fd5b5090508091506000803373ffffffffffffffffffffffffffffffffffffffff1673ffffffffffffffffffffffffffffffffffffffff168152602001908152602001600020829080600181540180825580915050600190039060005260206000200160009091909190916101000a81548173ffffffffffffffffffffffffffffffffffffffff021916908373ffffffffffffffffffffffffffffffffffffffff1602179055508373ffffffffffffffffffffffffffffffffffffffff163373ffffffffffffffffffffffffffffffffffffffff1614610361576000808573ffffffffffffffffffffffffffffffffffffffff1673ffffffffffffffffffffffffffffffffffffffff168152602001908152602001600020829080600181540180825580915050600190039060005260206000200160009091909190916101000a81548173ffffffffffffffffffffffffffffffffffffffff021916908373ffffffffffffffffffffffffffffffffffffffff1602179055505b8173ffffffffffffffffffffffffffffffffffffffff166108fc349081150290604051600060405180830381858888f193505050501580156103a7573d6000803e3d6000fd5b507f14d5db8c1f746c7adcbcd13cf8945dd2ac6ad58be52380b8c4933c876f76e1bf8233864287346040516103e19695949392919061058b565b60405180910390a15092915050565b6109a48061078b83390190565b60008135905061040c8161075c565b92915050565b60008135905061042181610773565b92915050565b60006020828403121561043957600080fd5b6000610447848285016103fd565b91505092915050565b6000806040838503121561046357600080fd5b6000610471858286016103fd565b925050602061048285828601610412565b9150509250929050565b600061049883836104c2565b60208301905092915050565b6104ad816106fd565b82525050565b6104bc816106c1565b82525050565b6104cb816106af565b82525050565b6104da816106af565b82525050565b60006104eb82610675565b6104f5818561068d565b935061050083610665565b8060005b83811015610531578151610518888261048c565b975061052383610680565b925050600181019050610504565b5085935050505092915050565b600061054b60148361069e565b915061055682610733565b602082019050919050565b61056a816106f3565b82525050565b600060208201905061058560008301846104b3565b92915050565b600060c0820190506105a060008301896104a4565b6105ad60208301886104d1565b6105ba60408301876104d1565b6105c76060830186610561565b6105d46080830185610561565b6105e160a0830184610561565b979650505050505050565b600060608201905061060160008301866104d1565b61060e60208301856104d1565b61061b6040830184610561565b949350505050565b6000602082019050818103600083015261063d81846104e0565b905092915050565b6000602082019050818103600083015261065e8161053e565b9050919050565b6000819050602082019050919050565b600081519050919050565b6000602082019050919050565b600082825260208201905092915050565b600082825260208201905092915050565b60006106ba826106d3565b9050919050565b60006106cc826106d3565b9050919050565b600073ffffffffffffffffffffffffffffffffffffffff82169050919050565b6000819050919050565b60006107088261070f565b9050919050565b600061071a82610721565b9050919050565b600061072c826106d3565b9050919050565b7f74686520636865636b206973206661696c696e67000000000000000000000000600082015250565b610765816106af565b811461077057600080fd5b50565b61077c816106f3565b811461078757600080fd5b5056fe608060405234801561001057600080fd5b506040516109a43803806109a4833981810160405281019061003291906100f3565b826000806101000a81548173ffffffffffffffffffffffffffffffffffffffff021916908373ffffffffffffffffffffffffffffffffffffffff16021790555081600160006101000a81548173ffffffffffffffffffffffffffffffffffffffff021916908373ffffffffffffffffffffffffffffffffffffffff16021790555080600281905550426003819055505050506101ac565b6000815190506100d88161017e565b92915050565b6000815190506100ed81610195565b92915050565b60008060006060848603121561010857600080fd5b6000610116868287016100c9565b9350506020610127868287016100c9565b9250506040610138868287016100de565b9150509250925092565b600061014d82610154565b9050919050565b600073ffffffffffffffffffffffffffffffffffffffff82169050919050565b6000819050919050565b61018781610142565b811461019257600080fd5b50565b61019e81610174565b81146101a957600080fd5b50565b6107e9806101bb6000396000f3fe6080604052600436106100745760003560e01c806349df728c1161004e57806349df728c1461012a57806369ac5721146101535780638da5cb5b1461017e578063cf09e0d0146101a9576100b4565b806302d05d3f146100b9578063370158ea146100e45780633ccfd60b14610113576100b4565b366100b4577f88a5966d370b9919b20f3e2c13ff65706f196a4e32cc2c12bf57088f8852587433346040516100aa9291906106e2565b60405180910390a1005b600080fd5b3480156100c557600080fd5b506100ce6101d4565b6040516100db919061063d565b60405180910390f35b3480156100f057600080fd5b506100f96101f8565b60405161010a95949392919061068f565b60405180910390f35b34801561011f57600080fd5b5061012861025d565b005b34801561013657600080fd5b50610151600480360381019061014c91906105a4565b610348565b005b34801561015f57600080fd5b50610168610533565b604051610175919061070b565b60405180910390f35b34801561018a57600080fd5b50610193610539565b6040516101a0919061063d565b60405180910390f35b3480156101b557600080fd5b506101be61055f565b6040516101cb919061070b565b60405180910390f35b60008054906101000a900473ffffffffffffffffffffffffffffffffffffffff1681565b60008060008060008060009054906101000a900473ffffffffffffffffffffffffffffffffffffffff16600160009054906101000a900473ffffffffffffffffffffffffffffffffffffffff1660025460035447945094509450945094509091929394565b600160009054906101000a900473ffffffffffffffffffffffffffffffffffffffff1673ffffffffffffffffffffffffffffffffffffffff163373ffffffffffffffffffffffffffffffffffffffff16146102b757600080fd5b6002544210156102c657600080fd5b3373ffffffffffffffffffffffffffffffffffffffff166108fc479081150290604051600060405180830381858888f1935050505015801561030c573d6000803e3d6000fd5b507fb244b9a17ad633c6e83b7983ee04320484956a68ddbe96a0b70dfca1cf19d723334760405161033e9291906106e2565b60405180910390a1565b600160009054906101000a900473ffffffffffffffffffffffffffffffffffffffff1673ffffffffffffffffffffffffffffffffffffffff163373ffffffffffffffffffffffffffffffffffffffff16146103a257600080fd5b6002544210156103b157600080fd5b600081905060008173ffffffffffffffffffffffffffffffffffffffff166370a08231306040518263ffffffff1660e01b81526004016103f1919061063d565b60206040518083038186803b15801561040957600080fd5b505afa15801561041d573d6000803e3d6000fd5b505050506040513d601f19601f8201168201806040525081019061044191906105f6565b90508173ffffffffffffffffffffffffffffffffffffffff1663a9059cbb600160009054906101000a900473ffffffffffffffffffffffffffffffffffffffff16836040518363ffffffff1660e01b81526004016104a09291906106e2565b602060405180830381600087803b1580156104ba57600080fd5b505af11580156104ce573d6000803e3d6000fd5b505050506040513d601f19601f820116820180604052508101906104f291906105cd565b507fa04c965e7d289704527a948915777d68bb4530fb4b08aa935fb958c0b7901ab983338360405161052693929190610658565b60405180910390a1505050565b60025481565b600160009054906101000a900473ffffffffffffffffffffffffffffffffffffffff1681565b60035481565b6000813590506105748161076e565b92915050565b60008151905061058981610785565b92915050565b60008151905061059e8161079c565b92915050565b6000602082840312156105b657600080fd5b60006105c484828501610565565b91505092915050565b6000602082840312156105df57600080fd5b60006105ed8482850161057a565b91505092915050565b60006020828403121561060857600080fd5b60006106168482850161058f565b91505092915050565b61062881610726565b82525050565b61063781610764565b82525050565b6000602082019050610652600083018461061f565b92915050565b600060608201905061066d600083018661061f565b61067a602083018561061f565b610687604083018461062e565b949350505050565b600060a0820190506106a4600083018861061f565b6106b1602083018761061f565b6106be604083018661062e565b6106cb606083018561062e565b6106d8608083018461062e565b9695505050505050565b60006040820190506106f7600083018561061f565b610704602083018461062e565b9392505050565b6000602082019050610720600083018461062e565b92915050565b600061073182610744565b9050919050565b60008115159050919050565b600073ffffffffffffffffffffffffffffffffffffffff82169050919050565b6000819050919050565b61077781610726565b811461078257600080fd5b50565b61078e81610738565b811461079957600080fd5b50565b6107a581610764565b81146107b057600080fd5b5056fea2646970667358221220695f65f08c0d79fcf19313d16c439bb9534668ab91cfbb4594af10400af6417b64736f6c63430008030033a26469706673582212202f25b6c17de462c7977c94c7a7724e09f4c268d6e77298891b5762a4164f6cf164736f6c63430008030033",
  "immutableReferences": {},
  "source": "// SPDX-License-Identifier: MIT\r\npragma solidity >=0.4.22 <0.9.0;\r\n\r\nimport \"./LockedWallet.sol\";\r\n\r\ncontract LockedWalletFactory {\r\n    mapping(address => address[]) wallets;\r\n\r\n    function getWallets(address _user) \r\n        public\r\n        view\r\n        returns(address[] memory)\r\n    {\r\n        return wallets[_user];\r\n    }\r\n\r\n    function newLockedWallet(address _owner, uint256 _unlockDate)\r\n        payable\r\n        public\r\n        returns(address payable wallet)\r\n    {\r\n        // Create new wallet.\r\n        LockedWallet lockedWallet = new LockedWallet(msg.sender, _owner, _unlockDate);\r\n        wallet = payable(address(lockedWallet));\r\n\r\n        // Add wallet to sender's wallets.\r\n        wallets[msg.sender].push(wallet);\r\n\r\n        // If owner is not the same as sender then add wallet to sender's wallets too.\r\n        if(msg.sender != _owner){\r\n            wallets[_owner].push(wallet);\r\n        }\r\n\r\n        // Send ether from this transaction to the created contract.\r\n        wallet.transfer(msg.value);\r\n\r\n        // Emit event.\r\n        Created(wallet, msg.sender, _owner, block.timestamp, _unlockDate, msg.value);\r\n    }\r\n\r\n    // Prevents accidental sending of ether to the factory\r\n    fallback () external { revert(\"the check is failing\"); }\r\n\r\n    event Created(address wallet, address from, address to, uint256 createdAt, uint256 unlockDate, uint256 amount);\r\n}",
  "sourcePath": "C:/Users/gabrycina/Documents/VestingContract/contracts/LockedWalletFactory.sol",
  "compiler": {
    "name": "solc",
    "version": "0.8.3+commit.8d00100c.Emscripten.clang"
  },
  "schemaVersion": "3.3.4",
  "updatedAt": "2021-05-05T12:17:36.255Z",
  "networkType": "ethereum",
  "devdoc": {
    "kind": "dev",
    "methods": {},
    "version": 1
  },
  "userdoc": {
    "kind": "user",
    "methods": {},
    "version": 1
  }
}